:060000000A128A11122809
:10000800FE00030EF1000408F2000A08F300831250
:1000180003137F08F4000A128A1144280A128A116D
:1000280059288B170B178B1607308316031381007B
:100038003B30831203138100831603130610242810
:10004800F508031D282829282D28831203130614D0
:100058002D287508643A031D32283328372883125F
:100068000313061037287508C83A031D3C283D2895
:100078002428F5012428242824280A128A11122861
:100088000B1D472848284E280130F0007008F50756
:100098000B114E287408FF0073088A007208840048
:1000A800710E8300FE0E7E0E0900F50183010A120F
:0400B8008A1115286C
:02400E00BAFFF7
:00000001FF
